{
  "contractName": "Robot",
  "abi": [
    {
      "inputs": [],
      "stateMutability": "nonpayable",
      "type": "constructor"
    },
    {
      "inputs": [],
      "name": "admin",
      "outputs": [
        {
          "internalType": "address",
          "name": "",
          "type": "address"
        }
      ],
      "stateMutability": "view",
      "type": "function",
      "constant": true
    },
    {
      "inputs": [
        {
          "internalType": "address",
          "name": "",
          "type": "address"
        },
        {
          "internalType": "uint256",
          "name": "",
          "type": "uint256"
        }
      ],
      "name": "allproposals",
      "outputs": [
        {
          "internalType": "uint256",
          "name": "",
          "type": "uint256"
        }
      ],
      "stateMutability": "view",
      "type": "function",
      "constant": true
    },
    {
      "inputs": [],
      "name": "customerCount",
      "outputs": [
        {
          "internalType": "uint256",
          "name": "",
          "type": "uint256"
        }
      ],
      "stateMutability": "view",
      "type": "function",
      "constant": true
    },
    {
      "inputs": [
        {
          "internalType": "address",
          "name": "",
          "type": "address"
        },
        {
          "internalType": "uint256",
          "name": "",
          "type": "uint256"
        }
      ],
      "name": "interests",
      "outputs": [
        {
          "internalType": "string",
          "name": "",
          "type": "string"
        }
      ],
      "stateMutability": "view",
      "type": "function",
      "constant": true
    },
    {
      "inputs": [
        {
          "internalType": "uint256",
          "name": "",
          "type": "uint256"
        }
      ],
      "name": "latestXSDFile1",
      "outputs": [
        {
          "internalType": "uint256",
          "name": "id",
          "type": "uint256"
        },
        {
          "internalType": "string",
          "name": "manmachineinterface",
          "type": "string"
        },
        {
          "internalType": "string",
          "name": "programmingflexibility",
          "type": "string"
        },
        {
          "internalType": "string",
          "name": "stability",
          "type": "string"
        },
        {
          "internalType": "string",
          "name": "compliavce",
          "type": "string"
        }
      ],
      "stateMutability": "view",
      "type": "function",
      "constant": true
    },
    {
      "inputs": [
        {
          "internalType": "uint256",
          "name": "",
          "type": "uint256"
        }
      ],
      "name": "latestXSDFile2",
      "outputs": [
        {
          "internalType": "uint256",
          "name": "id",
          "type": "uint256"
        },
        {
          "internalType": "string",
          "name": "processor",
          "type": "string"
        },
        {
          "internalType": "string",
          "name": "typeofrobot",
          "type": "string"
        },
        {
          "internalType": "string",
          "name": "purchasecode",
          "type": "string"
        },
        {
          "internalType": "string",
          "name": "deliverytime",
          "type": "string"
        }
      ],
      "stateMutability": "view",
      "type": "function",
      "constant": true
    },
    {
      "inputs": [
        {
          "internalType": "uint256",
          "name": "",
          "type": "uint256"
        },
        {
          "internalType": "uint256",
          "name": "",
          "type": "uint256"
        }
      ],
      "name": "objectivedata",
      "outputs": [
        {
          "internalType": "uint256",
          "name": "",
          "type": "uint256"
        }
      ],
      "stateMutability": "view",
      "type": "function",
      "constant": true
    },
    {
      "inputs": [
        {
          "internalType": "uint256",
          "name": "",
          "type": "uint256"
        }
      ],
      "name": "ontologiestoadmin",
      "outputs": [
        {
          "internalType": "uint256",
          "name": "id",
          "type": "uint256"
        },
        {
          "internalType": "address",
          "name": "proposer",
          "type": "address"
        },
        {
          "internalType": "uint256",
          "name": "sendtoAll",
          "type": "uint256"
        },
        {
          "internalType": "string",
          "name": "descproposed",
          "type": "string"
        },
        {
          "internalType": "string",
          "name": "justification",
          "type": "string"
        },
        {
          "internalType": "string",
          "name": "startdate",
          "type": "string"
        },
        {
          "internalType": "string",
          "name": "enddate",
          "type": "string"
        }
      ],
      "stateMutability": "view",
      "type": "function",
      "constant": true
    },
    {
      "inputs": [],
      "name": "ontologiestoadminCount",
      "outputs": [
        {
          "internalType": "uint256",
          "name": "",
          "type": "uint256"
        }
      ],
      "stateMutability": "view",
      "type": "function",
      "constant": true
    },
    {
      "inputs": [
        {
          "internalType": "uint256",
          "name": "",
          "type": "uint256"
        }
      ],
      "name": "ontology",
      "outputs": [
        {
          "internalType": "uint256",
          "name": "id",
          "type": "uint256"
        },
        {
          "internalType": "address",
          "name": "proposer",
          "type": "address"
        },
        {
          "internalType": "uint256",
          "name": "totalapproval",
          "type": "uint256"
        },
        {
          "internalType": "string",
          "name": "descproposed",
          "type": "string"
        },
        {
          "internalType": "string",
          "name": "justification",
          "type": "string"
        },
        {
          "internalType": "string",
          "name": "stdate",
          "type": "string"
        },
        {
          "internalType": "string",
          "name": "enddate",
          "type": "string"
        }
      ],
      "stateMutability": "view",
      "type": "function",
      "constant": true
    },
    {
      "inputs": [],
      "name": "ontologyCount",
      "outputs": [
        {
          "internalType": "uint256",
          "name": "",
          "type": "uint256"
        }
      ],
      "stateMutability": "view",
      "type": "function",
      "constant": true
    },
    {
      "inputs": [
        {
          "internalType": "address",
          "name": "",
          "type": "address"
        }
      ],
      "name": "rated",
      "outputs": [
        {
          "internalType": "string",
          "name": "",
          "type": "string"
        }
      ],
      "stateMutability": "view",
      "type": "function",
      "constant": true
    },
    {
      "inputs": [
        {
          "internalType": "address",
          "name": "",
          "type": "address"
        },
        {
          "internalType": "uint256",
          "name": "",
          "type": "uint256"
        }
      ],
      "name": "ratedotnot",
      "outputs": [
        {
          "internalType": "uint256",
          "name": "",
          "type": "uint256"
        }
      ],
      "stateMutability": "view",
      "type": "function",
      "constant": true
    },
    {
      "inputs": [
        {
          "internalType": "uint256",
          "name": "",
          "type": "uint256"
        }
      ],
      "name": "roboratings",
      "outputs": [
        {
          "internalType": "uint256",
          "name": "id",
          "type": "uint256"
        },
        {
          "internalType": "uint256",
          "name": "totalCustomersRated",
          "type": "uint256"
        },
        {
          "internalType": "uint256",
          "name": "totalRatings",
          "type": "uint256"
        }
      ],
      "stateMutability": "view",
      "type": "function",
      "constant": true
    },
    {
      "inputs": [
        {
          "internalType": "uint256",
          "name": "",
          "type": "uint256"
        }
      ],
      "name": "robotgeneralattributes",
      "outputs": [
        {
          "internalType": "uint256",
          "name": "id",
          "type": "uint256"
        },
        {
          "internalType": "string",
          "name": "processor",
          "type": "string"
        },
        {
          "internalType": "string",
          "name": "typeofrobot",
          "type": "string"
        }
      ],
      "stateMutability": "view",
      "type": "function",
      "constant": true
    },
    {
      "inputs": [
        {
          "internalType": "uint256",
          "name": "",
          "type": "uint256"
        }
      ],
      "name": "robotgeneralinformations",
      "outputs": [
        {
          "internalType": "uint256",
          "name": "id",
          "type": "uint256"
        },
        {
          "internalType": "string",
          "name": "purpose1",
          "type": "string"
        },
        {
          "internalType": "string",
          "name": "purpose2",
          "type": "string"
        },
        {
          "internalType": "string",
          "name": "robotname",
          "type": "string"
        },
        {
          "internalType": "string",
          "name": "proposed",
          "type": "string"
        },
        {
          "internalType": "string",
          "name": "ROAapproved",
          "type": "string"
        },
        {
          "internalType": "uint256",
          "name": "rating",
          "type": "uint256"
        },
        {
          "internalType": "uint256",
          "name": "totalapproval",
          "type": "uint256"
        },
        {
          "internalType": "string",
          "name": "descproposed",
          "type": "string"
        }
      ],
      "stateMutability": "view",
      "type": "function",
      "constant": true
    },
    {
      "inputs": [
        {
          "internalType": "uint256",
          "name": "",
          "type": "uint256"
        }
      ],
      "name": "robotobjectiveattributes",
      "outputs": [
        {
          "internalType": "uint256",
          "name": "id",
          "type": "uint256"
        },
        {
          "internalType": "string",
          "name": "purchasecode",
          "type": "string"
        },
        {
          "internalType": "string",
          "name": "deliverytime",
          "type": "string"
        }
      ],
      "stateMutability": "view",
      "type": "function",
      "constant": true
    },
    {
      "inputs": [
        {
          "internalType": "uint256",
          "name": "",
          "type": "uint256"
        }
      ],
      "name": "robotowners",
      "outputs": [
        {
          "internalType": "address",
          "name": "",
          "type": "address"
        }
      ],
      "stateMutability": "view",
      "type": "function",
      "constant": true
    },
    {
      "inputs": [
        {
          "internalType": "uint256",
          "name": "",
          "type": "uint256"
        }
      ],
      "name": "robotsubjectattributes",
      "outputs": [
        {
          "internalType": "uint256",
          "name": "id",
          "type": "uint256"
        },
        {
          "internalType": "string",
          "name": "manmachineinterface",
          "type": "string"
        },
        {
          "internalType": "string",
          "name": "programmingflexibility",
          "type": "string"
        },
        {
          "internalType": "string",
          "name": "stability",
          "type": "string"
        },
        {
          "internalType": "string",
          "name": "compliavce",
          "type": "string"
        }
      ],
      "stateMutability": "view",
      "type": "function",
      "constant": true
    },
    {
      "inputs": [
        {
          "internalType": "address",
          "name": "",
          "type": "address"
        }
      ],
      "name": "roles",
      "outputs": [
        {
          "internalType": "string",
          "name": "",
          "type": "string"
        }
      ],
      "stateMutability": "view",
      "type": "function",
      "constant": true
    },
    {
      "inputs": [
        {
          "internalType": "uint256",
          "name": "",
          "type": "uint256"
        },
        {
          "internalType": "uint256",
          "name": "",
          "type": "uint256"
        }
      ],
      "name": "subjectivedata",
      "outputs": [
        {
          "internalType": "uint256",
          "name": "",
          "type": "uint256"
        }
      ],
      "stateMutability": "view",
      "type": "function",
      "constant": true
    },
    {
      "inputs": [],
      "name": "supplierCount",
      "outputs": [
        {
          "internalType": "uint256",
          "name": "",
          "type": "uint256"
        }
      ],
      "stateMutability": "view",
      "type": "function",
      "constant": true
    },
    {
      "inputs": [],
      "name": "totalRobots",
      "outputs": [
        {
          "internalType": "uint256",
          "name": "",
          "type": "uint256"
        }
      ],
      "stateMutability": "view",
      "type": "function",
      "constant": true
    },
    {
      "inputs": [],
      "name": "xsdCount",
      "outputs": [
        {
          "internalType": "uint256",
          "name": "",
          "type": "uint256"
        }
      ],
      "stateMutability": "view",
      "type": "function",
      "constant": true
    },
    {
      "inputs": [
        {
          "internalType": "uint256",
          "name": "_id",
          "type": "uint256"
        }
      ],
      "name": "getSbjectiveData",
      "outputs": [
        {
          "internalType": "uint256[]",
          "name": "",
          "type": "uint256[]"
        }
      ],
      "stateMutability": "view",
      "type": "function",
      "constant": true
    },
    {
      "inputs": [
        {
          "internalType": "uint256",
          "name": "_id",
          "type": "uint256"
        }
      ],
      "name": "getObjectiveData",
      "outputs": [
        {
          "internalType": "uint256[]",
          "name": "",
          "type": "uint256[]"
        }
      ],
      "stateMutability": "view",
      "type": "function",
      "constant": true
    },
    {
      "inputs": [
        {
          "internalType": "string[]",
          "name": "_interest",
          "type": "string[]"
        }
      ],
      "name": "addinterests",
      "outputs": [],
      "stateMutability": "nonpayable",
      "type": "function"
    },
    {
      "inputs": [
        {
          "internalType": "address",
          "name": "a",
          "type": "address"
        }
      ],
      "name": "getinterests",
      "outputs": [
        {
          "internalType": "string[]",
          "name": "",
          "type": "string[]"
        }
      ],
      "stateMutability": "view",
      "type": "function",
      "constant": true
    },
    {
      "inputs": [
        {
          "internalType": "string",
          "name": "_role",
          "type": "string"
        }
      ],
      "name": "registerRoles",
      "outputs": [],
      "stateMutability": "nonpayable",
      "type": "function"
    },
    {
      "inputs": [
        {
          "internalType": "string",
          "name": "_p1",
          "type": "string"
        },
        {
          "internalType": "string",
          "name": "_p2",
          "type": "string"
        },
        {
          "internalType": "string",
          "name": "_rname",
          "type": "string"
        },
        {
          "internalType": "uint256[]",
          "name": "_sub",
          "type": "uint256[]"
        },
        {
          "internalType": "uint256[]",
          "name": "_obj",
          "type": "uint256[]"
        },
        {
          "internalType": "uint256",
          "name": "_pscore",
          "type": "uint256"
        }
      ],
      "name": "addNewRobot",
      "outputs": [],
      "stateMutability": "nonpayable",
      "type": "function"
    },
    {
      "inputs": [
        {
          "internalType": "uint256",
          "name": "i",
          "type": "uint256"
        },
        {
          "internalType": "string",
          "name": "_startdate",
          "type": "string"
        },
        {
          "internalType": "string",
          "name": "_enddate",
          "type": "string"
        }
      ],
      "name": "updateOntology",
      "outputs": [],
      "stateMutability": "nonpayable",
      "type": "function"
    },
    {
      "inputs": [
        {
          "internalType": "uint256",
          "name": "i",
          "type": "uint256"
        }
      ],
      "name": "deleteOntology",
      "outputs": [],
      "stateMutability": "nonpayable",
      "type": "function"
    },
    {
      "inputs": [
        {
          "internalType": "string",
          "name": "_desc",
          "type": "string"
        },
        {
          "internalType": "string",
          "name": "_justification",
          "type": "string"
        }
      ],
      "name": "updateOntologyToAdmin",
      "outputs": [],
      "stateMutability": "nonpayable",
      "type": "function"
    },
    {
      "inputs": [
        {
          "internalType": "uint256",
          "name": "id",
          "type": "uint256"
        }
      ],
      "name": "acceptProposal",
      "outputs": [],
      "stateMutability": "nonpayable",
      "type": "function"
    },
    {
      "inputs": [
        {
          "internalType": "uint256",
          "name": "id",
          "type": "uint256"
        }
      ],
      "name": "rejectProposal",
      "outputs": [],
      "stateMutability": "nonpayable",
      "type": "function"
    },
    {
      "inputs": [
        {
          "internalType": "uint256[]",
          "name": "ratings",
          "type": "uint256[]"
        },
        {
          "internalType": "uint256",
          "name": "count",
          "type": "uint256"
        }
      ],
      "name": "updateRatings",
      "outputs": [],
      "stateMutability": "nonpayable",
      "type": "function"
    },
    {
      "inputs": [
        {
          "internalType": "string",
          "name": "_mm",
          "type": "string"
        },
        {
          "internalType": "string",
          "name": "_pf",
          "type": "string"
        },
        {
          "internalType": "string",
          "name": "_st",
          "type": "string"
        },
        {
          "internalType": "string",
          "name": "_cp",
          "type": "string"
        },
        {
          "internalType": "string",
          "name": "_prc",
          "type": "string"
        },
        {
          "internalType": "string",
          "name": "_type",
          "type": "string"
        },
        {
          "internalType": "string",
          "name": "_pc",
          "type": "string"
        },
        {
          "internalType": "string",
          "name": "_pt",
          "type": "string"
        }
      ],
      "name": "addtoXSDFile",
      "outputs": [],
      "stateMutability": "nonpayable",
      "type": "function"
    },
    {
      "inputs": [
        {
          "internalType": "uint256",
          "name": "id",
          "type": "uint256"
        }
      ],
      "name": "addtoXSDFilebyOntology",
      "outputs": [],
      "stateMutability": "nonpayable",
      "type": "function"
    },
    {
      "inputs": [
        {
          "internalType": "uint256[]",
          "name": "ratings",
          "type": "uint256[]"
        },
        {
          "internalType": "uint256[]",
          "name": "robos",
          "type": "uint256[]"
        }
      ],
      "name": "addRatingsOLD",
      "outputs": [],
      "stateMutability": "nonpayable",
      "type": "function"
    },
    {
      "inputs": [
        {
          "internalType": "uint256[]",
          "name": "ratings",
          "type": "uint256[]"
        },
        {
          "internalType": "uint256[]",
          "name": "robos",
          "type": "uint256[]"
        }
      ],
      "name": "addRatings",
      "outputs": [],
      "stateMutability": "nonpayable",
      "type": "function"
    }
  ],
  "bytecode": "0x6080604052600080556000600155600060025560006003556000600455600060055534801561002d57600080fd5b5033600660006101000a81548173ffffffffffffffffffffffffffffffffffffffff021916908373ffffffffffffffffffffffffffffffffffffffff16021790555061525a8061007e6000396000f3fe608060405234801561001057600080fd5b50600436106102485760003560e01c806384c469211161013b578063b6fec82d116100b8578063d3768f231161007c578063d3768f23146107b9578063e2082a83146107d5578063e53b2263146107f3578063f5fdcdf614610823578063f851a4401461085357610248565b8063b6fec82d146106eb578063b90d4e961461071b578063ba5a4eab14610737578063bc28d8781461076d578063cb3cf60e1461078957610248565b806395372f09116100ff57806395372f091461064957806396b905ed146106655780639757e8a314610681578063993746421461069f578063ae1e4943146106cf57610248565b806384c469211461057957806386658d1b146105a95780638d5d0939146105db5780638ed783e4146105f95780638f30e9b21461062b57610248565b806343ee7e39116101c95780636e879f851161018d5780636e879f851461048f578063731c64c0146104ab5780637b818928146104db5780637c85ce16146105135780638050ae0d1461054957610248565b806343ee7e39146103d55780634c961570146104095780634fd7942b146104275780635a84a2491461044357806360c5cc3a1461047357610248565b8063145696ba11610210578063145696ba146103055780632847f4b2146103395780632b643d93146103555780633ca61558146103895780634003c8a4146103a557610248565b806304f5ea451461024d5780630a012a2f1461027d5780630eb2b87d146102995780630f6a1944146102cb578063140c6b91146102e7575b600080fd5b610267600480360381019061026291906149f5565b610871565b6040516102749190614d14565b60405180910390f35b61029760048036038101906102929190614615565b6108a4565b005b6102b360048036038101906102ae91906149f5565b6109df565b6040516102c293929190614e3b565b60405180910390f35b6102e560048036038101906102e09190614681565b610b39565b005b6102ef6111a2565b6040516102fc9190614d95565b60405180910390f35b61031f600480360381019061031a91906149f5565b6111a8565b604051610330959493929190614e80565b60405180910390f35b610353600480360381019061034e9190614716565b61143e565b005b61036f600480360381019061036a91906149f5565b6115a5565b604051610380959493929190614e80565b60405180910390f35b6103a3600480360381019061039e9190614a1e565b61183b565b005b6103bf60048036038101906103ba919061456f565b611b9b565b6040516103cc9190614d73565b60405180910390f35b6103ef60048036038101906103ea91906149f5565b611c4b565b604051610400959493929190614e80565b60405180910390f35b610411611ee1565b60405161041e9190614d95565b60405180910390f35b610441600480360381019061043c91906149f5565b611ee7565b005b61045d6004803603810190610458919061456f565b611f06565b60405161046a9190614d2f565b60405180910390f35b61048d600480360381019061048891906149f5565b61202e565b005b6104a960048036038101906104a491906149f5565b6124e0565b005b6104c560048036038101906104c09190614598565b612c13565b6040516104d29190614d73565b60405180910390f35b6104f560048036038101906104f091906149f5565b612cd9565b60405161050a99989796959493929190614eef565b60405180910390f35b61052d600480360381019061052891906149f5565b6130b7565b6040516105409796959493929190614db0565b60405180910390f35b610563600480360381019061055e9190614a9d565b613379565b6040516105709190614d95565b60405180910390f35b610593600480360381019061058e91906149f5565b6133a7565b6040516105a09190614d51565b60405180910390f35b6105c360048036038101906105be91906149f5565b613412565b6040516105d293929190614fa6565b60405180910390f35b6105e361343c565b6040516105f09190614d95565b60405180910390f35b610613600480360381019061060e91906149f5565b613442565b60405161062293929190614e3b565b60405180910390f35b61063361359c565b6040516106409190614d95565b60405180910390f35b610663600480360381019061065e91906146d5565b6135a2565b005b61067f600480360381019061067a9190614782565b6136bd565b005b610689613975565b6040516106969190614d95565b60405180910390f35b6106b960048036038101906106b4919061456f565b61397b565b6040516106c69190614d73565b60405180910390f35b6106e960048036038101906106e49190614615565b613a2b565b005b61070560048036038101906107009190614a9d565b613b45565b6040516107129190614d95565b60405180910390f35b61073560048036038101906107309190614883565b613b73565b005b610751600480360381019061074c91906149f5565b613d0d565b6040516107649796959493929190614db0565b60405180910390f35b610787600480360381019061078291906149f5565b613fcf565b005b6107a3600480360381019061079e9190614598565b614028565b6040516107b09190614d95565b60405180910390f35b6107d360048036038101906107ce91906145d4565b61404d565b005b6107dd6140a4565b6040516107ea9190614d95565b60405180910390f35b61080d60048036038101906108089190614598565b6140aa565b60405161081a9190614d95565b60405180910390f35b61083d600480360381019061083891906149f5565b6140cf565b60405161084a9190614d51565b60405180910390f35b61085b61413a565b6040516108689190614d14565b60405180910390f35b60116020528060005260406000206000915054906101000a900473ffffffffffffffffffffffffffffffffffffffff1681565b60008090505b81518110156109da5760008282815181106108c157fe5b6020026020010151905060008483815181106108d957fe5b602002602001015190506000600f600084815260200190815260200160002060020154905081810190506000600f6000858152602001908152602001600020600101549050600181019050604051806060016040528085815260200182815260200183815250600f60008681526020019081526020016000206000820151816000015560208201518160010155604082015181600201559050506001601060003373ffffffffffffffffffffffffffffffffffffffff1673ffffffffffffffffffffffffffffffffffffffff1681526020019081526020016000206000868152602001908152602001600020819055505050505080806001019150506108aa565b505050565b600c602052806000526040600020600091509050806000015490806001018054600181600116156101000203166002900480601f016020809104026020016040519081016040528092919081815260200182805460018160011615610100020316600290048015610a915780601f10610a6657610100808354040283529160200191610a91565b820191906000526020600020905b815481529060010190602001808311610a7457829003601f168201915b505050505090806002018054600181600116156101000203166002900480601f016020809104026020016040519081016040528092919081815260200182805460018160011615610100020316600290048015610b2f5780601f10610b0457610100808354040283529160200191610b2f565b820191906000526020600020905b815481529060010190602001808311610b1257829003601f168201915b5050505050905083565b6001600081548092919060010191905055506000600190505b818111611114576060600760008381526020019081526020016000206001018054600181600116156101000203166002900480601f016020809104026020016040519081016040528092919081815260200182805460018160011615610100020316600290048015610c055780601f10610bda57610100808354040283529160200191610c05565b820191906000526020600020905b815481529060010190602001808311610be857829003601f168201915b505050505090506060600760008481526020019081526020016000206002018054600181600116156101000203166002900480601f016020809104026020016040519081016040528092919081815260200182805460018160011615610100020316600290048015610cb85780601f10610c8d57610100808354040283529160200191610cb8565b820191906000526020600020905b815481529060010190602001808311610c9b57829003601f168201915b505050505090506060600760008581526020019081526020016000206003018054600181600116156101000203166002900480601f016020809104026020016040519081016040528092919081815260200182805460018160011615610100020316600290048015610d6b5780601f10610d4057610100808354040283529160200191610d6b565b820191906000526020600020905b815481529060010190602001808311610d4e57829003601f168201915b505050505090506060600760008681526020019081526020016000206004018054600181600116156101000203166002900480601f016020809104026020016040519081016040528092919081815260200182805460018160011615610100020316600290048015610e1e5780601f10610df357610100808354040283529160200191610e1e565b820191906000526020600020905b815481529060010190602001808311610e0157829003601f168201915b505050505090506060600760008781526020019081526020016000206005018054600181600116156101000203166002900480601f016020809104026020016040519081016040528092919081815260200182805460018160011615610100020316600290048015610ed15780601f10610ea657610100808354040283529160200191610ed1565b820191906000526020600020905b815481529060010190602001808311610eb457829003601f168201915b50505050509050600060076000888152602001908152602001600020600601549050886001880381518110610f0257fe5b6020026020010151810190506000600760008981526020019081526020016000206007015490506060600760008a81526020019081526020016000206008018054600181600116156101000203166002900480601f016020809104026020016040519081016040528092919081815260200182805460018160011615610100020316600290048015610fd55780601f10610faa57610100808354040283529160200191610fd5565b820191906000526020600020905b815481529060010190602001808311610fb857829003601f168201915b505050505090506040518061012001604052808a815260200189815260200188815260200187815260200186815260200185815260200184815260200183815260200182815250600760008b8152602001908152602001600020600082015181600001556020820151816001019080519060200190611055929190614160565b506040820151816002019080519060200190611072929190614160565b50606082015181600301908051906020019061108f929190614160565b5060808201518160040190805190602001906110ac929190614160565b5060a08201518160050190805190602001906110c9929190614160565b5060c0820151816006015560e082015181600701556101008201518160080190805190602001906110fb929190614160565b5090505050505050505050508080600101915050610b52565b506040518060400160405280600181526020017f3100000000000000000000000000000000000000000000000000000000000000815250601360003373ffffffffffffffffffffffffffffffffffffffff1673ffffffffffffffffffffffffffffffffffffffff168152602001908152602001600020908051906020019061119d9291906141e0565b505050565b60005481565b600d602052806000526040600020600091509050806000015490806001018054600181600116156101000203166002900480601f01602080910402602001604051908101604052809291908181526020018280546001816001161561010002031660029004801561125a5780601f1061122f5761010080835404028352916020019161125a565b820191906000526020600020905b81548152906001019060200180831161123d57829003601f168201915b505050505090806002018054600181600116156101000203166002900480601f0160208091040260200160405190810160405280929190818152602001828054600181600116156101000203166002900480156112f85780601f106112cd576101008083540402835291602001916112f8565b820191906000526020600020905b8154815290600101906020018083116112db57829003601f168201915b505050505090806003018054600181600116156101000203166002900480601f0160208091040260200160405190810160405280929190818152602001828054600181600116156101000203166002900480156113965780601f1061136b57610100808354040283529160200191611396565b820191906000526020600020905b81548152906001019060200180831161137957829003601f168201915b505050505090806004018054600181600116156101000203166002900480601f0160208091040260200160405190810160405280929190818152602001828054600181600116156101000203166002900480156114345780601f1061140957610100808354040283529160200191611434565b820191906000526020600020905b81548152906001019060200180831161141757829003601f168201915b5050505050905085565b6005600081548092919060010191905055506040518060e0016040528060055481526020013373ffffffffffffffffffffffffffffffffffffffff1681526020016000815260200183815260200182815260200160405180602001604052806000815250815260200160405180602001604052806000815250815250600a600060055481526020019081526020016000206000820151816000015560208201518160010160006101000a81548173ffffffffffffffffffffffffffffffffffffffff021916908373ffffffffffffffffffffffffffffffffffffffff160217905550604082015181600201556060820151816003019080519060200190611546929190614160565b506080820151816004019080519060200190611563929190614160565b5060a0820151816005019080519060200190611580929190614160565b5060c082015181600601908051906020019061159d929190614160565b509050505050565b600e602052806000526040600020600091509050806000015490806001018054600181600116156101000203166002900480601f0160208091040260200160405190810160405280929190818152602001828054600181600116156101000203166002900480156116575780601f1061162c57610100808354040283529160200191611657565b820191906000526020600020905b81548152906001019060200180831161163a57829003601f168201915b505050505090806002018054600181600116156101000203166002900480601f0160208091040260200160405190810160405280929190818152602001828054600181600116156101000203166002900480156116f55780601f106116ca576101008083540402835291602001916116f5565b820191906000526020600020905b8154815290600101906020018083116116d857829003601f168201915b505050505090806003018054600181600116156101000203166002900480601f0160208091040260200160405190810160405280929190818152602001828054600181600116156101000203166002900480156117935780601f1061176857610100808354040283529160200191611793565b820191906000526020600020905b81548152906001019060200180831161177657829003601f168201915b505050505090806004018054600181600116156101000203166002900480601f0160208091040260200160405190810160405280929190818152602001828054600181600116156101000203166002900480156118315780601f1061180657610100808354040283529160200191611831565b820191906000526020600020905b81548152906001019060200180831161181457829003601f168201915b5050505050905085565b6000600a600085815260200190815260200160002060010160009054906101000a900473ffffffffffffffffffffffffffffffffffffffff1690506060600a60008681526020019081526020016000206003018054600181600116156101000203166002900480601f0160208091040260200160405190810160405280929190818152602001828054600181600116156101000203166002900480156119225780601f106118f757610100808354040283529160200191611922565b820191906000526020600020905b81548152906001019060200180831161190557829003601f168201915b505050505090506060600a60008781526020019081526020016000206004018054600181600116156101000203166002900480601f0160208091040260200160405190810160405280929190818152602001828054600181600116156101000203166002900480156119d55780601f106119aa576101008083540402835291602001916119d5565b820191906000526020600020905b8154815290600101906020018083116119b857829003601f168201915b505050505090506001600a60008881526020019081526020016000206002018190555084600a60008881526020019081526020016000206005019080519060200190611a229291906141e0565b5083600a60008881526020019081526020016000206006019080519060200190611a4d9291906141e0565b506004600081548092919060010191905055506040518060e0016040528060045481526020018473ffffffffffffffffffffffffffffffffffffffff16815260200160008152602001838152602001828152602001868152602001858152506009600060045481526020019081526020016000206000820151816000015560208201518160010160006101000a81548173ffffffffffffffffffffffffffffffffffffffff021916908373ffffffffffffffffffffffffffffffffffffffff160217905550604082015181600201556060820151816003019080519060200190611b38929190614160565b506080820151816004019080519060200190611b55929190614160565b5060a0820151816005019080519060200190611b72929190614160565b5060c0820151816006019080519060200190611b8f929190614160565b50905050505050505050565b60136020528060005260406000206000915090508054600181600116156101000203166002900480601f016020809104026020016040519081016040528092919081815260200182805460018160011615610100020316600290048015611c435780601f10611c1857610100808354040283529160200191611c43565b820191906000526020600020905b815481529060010190602001808311611c2657829003601f168201915b505050505081565b6008602052806000526040600020600091509050806000015490806001018054600181600116156101000203166002900480601f016020809104026020016040519081016040528092919081815260200182805460018160011615610100020316600290048015611cfd5780601f10611cd257610100808354040283529160200191611cfd565b820191906000526020600020905b815481529060010190602001808311611ce057829003601f168201915b505050505090806002018054600181600116156101000203166002900480601f016020809104026020016040519081016040528092919081815260200182805460018160011615610100020316600290048015611d9b5780601f10611d7057610100808354040283529160200191611d9b565b820191906000526020600020905b815481529060010190602001808311611d7e57829003601f168201915b505050505090806003018054600181600116156101000203166002900480601f016020809104026020016040519081016040528092919081815260200182805460018160011615610100020316600290048015611e395780601f10611e0e57610100808354040283529160200191611e39565b820191906000526020600020905b815481529060010190602001808311611e1c57829003601f168201915b505050505090806004018054600181600116156101000203166002900480601f016020809104026020016040519081016040528092919081815260200182805460018160011615610100020316600290048015611ed75780601f10611eac57610100808354040283529160200191611ed7565b820191906000526020600020905b815481529060010190602001808311611eba57829003601f168201915b5050505050905085565b60025481565b6002600a60008381526020019081526020016000206002018190555050565b6060601460008373ffffffffffffffffffffffffffffffffffffffff1673ffffffffffffffffffffffffffffffffffffffff168152602001908152602001600020805480602002602001604051908101604052809291908181526020016000905b82821015612023578382906000526020600020018054600181600116156101000203166002900480601f01602080910402602001604051908101604052809291908181526020018280546001816001161561010002031660029004801561200f5780601f10611fe45761010080835404028352916020019161200f565b820191906000526020600020905b815481529060010190602001808311611ff257829003601f168201915b505050505081526020019060010190611f67565b505050509050919050565b60006009600083815260200190815260200160002060010160009054906101000a900473ffffffffffffffffffffffffffffffffffffffff1690506060600960008481526020019081526020016000206003018054600181600116156101000203166002900480601f0160208091040260200160405190810160405280929190818152602001828054600181600116156101000203166002900480156121155780601f106120ea57610100808354040283529160200191612115565b820191906000526020600020905b8154815290600101906020018083116120f857829003601f168201915b505050505090506000600160096000868152602001908152602001600020600201540190506060600960008681526020019081526020016000206004018054600181600116156101000203166002900480601f0160208091040260200160405190810160405280929190818152602001828054600181600116156101000203166002900480156121e65780601f106121bb576101008083540402835291602001916121e6565b820191906000526020600020905b8154815290600101906020018083116121c957829003601f168201915b505050505090506060600960008781526020019081526020016000206005018054600181600116156101000203166002900480601f0160208091040260200160405190810160405280929190818152602001828054600181600116156101000203166002900480156122995780601f1061226e57610100808354040283529160200191612299565b820191906000526020600020905b81548152906001019060200180831161227c57829003601f168201915b505050505090506060600960008881526020019081526020016000206006018054600181600116156101000203166002900480601f01602080910402602001604051908101604052809291908181526020018280546001816001161561010002031660029004801561234c5780601f106123215761010080835404028352916020019161234c565b820191906000526020600020905b81548152906001019060200180831161232f57829003601f168201915b505050505090506040518060e001604052808881526020018773ffffffffffffffffffffffffffffffffffffffff16815260200185815260200186815260200184815260200183815260200182815250600960008981526020019081526020016000206000820151816000015560208201518160010160006101000a81548173ffffffffffffffffffffffffffffffffffffffff021916908373ffffffffffffffffffffffffffffffffffffffff160217905550604082015181600201556060820151816003019080519060200190612426929190614160565b506080820151816004019080519060200190612443929190614160565b5060a0820151816005019080519060200190612460929190614160565b5060c082015181600601908051906020019061247d929190614160565b509050506002601560003373ffffffffffffffffffffffffffffffffffffffff1673ffffffffffffffffffffffffffffffffffffffff16815260200190815260200160002060008981526020019081526020016000208190555050505050505050565b6003600081548092919060010191905055506060600860008381526020019081526020016000206001018054600181600116156101000203166002900480601f01602080910402602001604051908101604052809291908181526020018280546001816001161561010002031660029004801561259e5780601f106125735761010080835404028352916020019161259e565b820191906000526020600020905b81548152906001019060200180831161258157829003601f168201915b505050505090506060600860008481526020019081526020016000206002018054600181600116156101000203166002900480601f0160208091040260200160405190810160405280929190818152602001828054600181600116156101000203166002900480156126515780601f1061262657610100808354040283529160200191612651565b820191906000526020600020905b81548152906001019060200180831161263457829003601f168201915b505050505090506060600860008581526020019081526020016000206003018054600181600116156101000203166002900480601f0160208091040260200160405190810160405280929190818152602001828054600181600116156101000203166002900480156127045780601f106126d957610100808354040283529160200191612704565b820191906000526020600020905b8154815290600101906020018083116126e757829003601f168201915b505050505090506060600860008681526020019081526020016000206004018054600181600116156101000203166002900480601f0160208091040260200160405190810160405280929190818152602001828054600181600116156101000203166002900480156127b75780601f1061278c576101008083540402835291602001916127b7565b820191906000526020600020905b81548152906001019060200180831161279a57829003601f168201915b505050505090506060600b60008781526020019081526020016000206001018054600181600116156101000203166002900480601f01602080910402602001604051908101604052809291908181526020018280546001816001161561010002031660029004801561286a5780601f1061283f5761010080835404028352916020019161286a565b820191906000526020600020905b81548152906001019060200180831161284d57829003601f168201915b505050505090506060600b60008881526020019081526020016000206002018054600181600116156101000203166002900480601f01602080910402602001604051908101604052809291908181526020018280546001816001161561010002031660029004801561291d5780601f106128f25761010080835404028352916020019161291d565b820191906000526020600020905b81548152906001019060200180831161290057829003601f168201915b505050505090506060600c60008981526020019081526020016000206001018054600181600116156101000203166002900480601f0160208091040260200160405190810160405280929190818152602001828054600181600116156101000203166002900480156129d05780601f106129a5576101008083540402835291602001916129d0565b820191906000526020600020905b8154815290600101906020018083116129b357829003601f168201915b505050505090506060600c60008a81526020019081526020016000206002018054600181600116156101000203166002900480601f016020809104026020016040519081016040528092919081815260200182805460018160011615610100020316600290048015612a835780601f10612a5857610100808354040283529160200191612a83565b820191906000526020600020905b815481529060010190602001808311612a6657829003601f168201915b505050505090506040518060a00160405280600354815260200189815260200188815260200187815260200186815250600d60006003548152602001908152602001600020600082015181600001556020820151816001019080519060200190612aee929190614160565b506040820151816002019080519060200190612b0b929190614160565b506060820151816003019080519060200190612b28929190614160565b506080820151816004019080519060200190612b45929190614160565b509050506040518060a00160405280600354815260200185815260200184815260200183815260200182815250600e60006003548152602001908152602001600020600082015181600001556020820151816001019080519060200190612bad929190614160565b506040820151816002019080519060200190612bca929190614160565b506060820151816003019080519060200190612be7929190614160565b506080820151816004019080519060200190612c04929190614160565b50905050505050505050505050565b60146020528160005260406000208181548110612c2c57fe5b90600052602060002001600091509150508054600181600116156101000203166002900480601f016020809104026020016040519081016040528092919081815260200182805460018160011615610100020316600290048015612cd15780601f10612ca657610100808354040283529160200191612cd1565b820191906000526020600020905b815481529060010190602001808311612cb457829003601f168201915b505050505081565b6007602052806000526040600020600091509050806000015490806001018054600181600116156101000203166002900480601f016020809104026020016040519081016040528092919081815260200182805460018160011615610100020316600290048015612d8b5780601f10612d6057610100808354040283529160200191612d8b565b820191906000526020600020905b815481529060010190602001808311612d6e57829003601f168201915b505050505090806002018054600181600116156101000203166002900480601f016020809104026020016040519081016040528092919081815260200182805460018160011615610100020316600290048015612e295780601f10612dfe57610100808354040283529160200191612e29565b820191906000526020600020905b815481529060010190602001808311612e0c57829003601f168201915b505050505090806003018054600181600116156101000203166002900480601f016020809104026020016040519081016040528092919081815260200182805460018160011615610100020316600290048015612ec75780601f10612e9c57610100808354040283529160200191612ec7565b820191906000526020600020905b815481529060010190602001808311612eaa57829003601f168201915b505050505090806004018054600181600116156101000203166002900480601f016020809104026020016040519081016040528092919081815260200182805460018160011615610100020316600290048015612f655780601f10612f3a57610100808354040283529160200191612f65565b820191906000526020600020905b815481529060010190602001808311612f4857829003601f168201915b505050505090806005018054600181600116156101000203166002900480601f0160208091040260200160405190810160405280929190818152602001828054600181600116156101000203166002900480156130035780601f10612fd857610100808354040283529160200191613003565b820191906000526020600020905b815481529060010190602001808311612fe657829003601f168201915b505050505090806006015490806007015490806008018054600181600116156101000203166002900480601f0160208091040260200160405190810160405280929190818152602001828054600181600116156101000203166002900480156130ad5780601f10613082576101008083540402835291602001916130ad565b820191906000526020600020905b81548152906001019060200180831161309057829003601f168201915b5050505050905089565b600a6020528060005260406000206000915090508060000154908060010160009054906101000a900473ffffffffffffffffffffffffffffffffffffffff1690806002015490806003018054600181600116156101000203166002900480601f0160208091040260200160405190810160405280929190818152602001828054600181600116156101000203166002900480156131955780601f1061316a57610100808354040283529160200191613195565b820191906000526020600020905b81548152906001019060200180831161317857829003601f168201915b505050505090806004018054600181600116156101000203166002900480601f0160208091040260200160405190810160405280929190818152602001828054600181600116156101000203166002900480156132335780601f1061320857610100808354040283529160200191613233565b820191906000526020600020905b81548152906001019060200180831161321657829003601f168201915b505050505090806005018054600181600116156101000203166002900480601f0160208091040260200160405190810160405280929190818152602001828054600181600116156101000203166002900480156132d15780601f106132a6576101008083540402835291602001916132d1565b820191906000526020600020905b8154815290600101906020018083116132b457829003601f168201915b505050505090806006018054600181600116156101000203166002900480601f01602080910402602001604051908101604052809291908181526020018280546001816001161561010002031660029004801561336f5780601f106133445761010080835404028352916020019161336f565b820191906000526020600020905b81548152906001019060200180831161335257829003601f168201915b5050505050905087565b6016602052816000526040600020818154811061339257fe5b90600052602060002001600091509150505481565b60606016600083815260200190815260200160002080548060200260200160405190810160405280929190818152602001828054801561340657602002820191906000526020600020905b8154815260200190600101908083116133f2575b50505050509050919050565b600f6020528060005260406000206000915090508060000154908060010154908060020154905083565b60035481565b600b602052806000526040600020600091509050806000015490806001018054600181600116156101000203166002900480601f0160208091040260200160405190810160405280929190818152602001828054600181600116156101000203166002900480156134f45780601f106134c9576101008083540402835291602001916134f4565b820191906000526020600020905b8154815290600101906020018083116134d757829003601f168201915b505050505090806002018054600181600116156101000203166002900480601f0160208091040260200160405190810160405280929190818152602001828054600181600116156101000203166002900480156135925780601f1061356757610100808354040283529160200191613592565b820191906000526020600020905b81548152906001019060200180831161357557829003601f168201915b5050505050905083565b60055481565b6000601260003373ffffffffffffffffffffffffffffffffffffffff1673ffffffffffffffffffffffffffffffffffffffff1681526020019081526020016000208054600181600116156101000203166002900490501461360257600080fd5b80601260003373ffffffffffffffffffffffffffffffffffffffff1673ffffffffffffffffffffffffffffffffffffffff16815260200190815260200160002090805190602001906136559291906141e0565b5060405160200161366590614cff565b604051602081830303815290604052805190602001208160405160200161368c9190614ce8565b6040516020818303038152906040528051906020012014156136ba5760008081548092919060010191905055505b50565b60026000815480929190600101919050555060405180610120016040528060025481526020018781526020018681526020018581526020016040518060400160405280600581526020017f66616c736500000000000000000000000000000000000000000000000000000081525081526020016040518060400160405280600581526020017f66616c736500000000000000000000000000000000000000000000000000000081525081526020016000815260200160008152602001604051806020016040528060008152508152506007600060025481526020019081526020016000206000820151816000015560208201518160010190805190602001906137c7929190614160565b5060408201518160020190805190602001906137e4929190614160565b506060820151816003019080519060200190613801929190614160565b50608082015181600401908051906020019061381e929190614160565b5060a082015181600501908051906020019061383b929190614160565b5060c0820151816006015560e0820151816007015561010082015181600801908051906020019061386d929190614160565b509050503360116000600254815260200190815260200160002060006101000a81548173ffffffffffffffffffffffffffffffffffffffff021916908373ffffffffffffffffffffffffffffffffffffffff1602179055508260166000600254815260200190815260200160002090805190602001906138ee929190614260565b50816017600060025481526020019081526020016000209080519060200190613918929190614260565b50604051806060016040528060025481526020016000815260200182815250600f60006002548152602001908152602001600020600082015181600001556020820151816001015560408201518160020155905050505050505050565b60015481565b60126020528060005260406000206000915090508054600181600116156101000203166002900480601f016020809104026020016040519081016040528092919081815260200182805460018160011615610100020316600290048015613a235780601f106139f857610100808354040283529160200191613a23565b820191906000526020600020905b815481529060010190602001808311613a0657829003601f168201915b505050505081565b60008090505b8151811015613b40576000828281518110613a4857fe5b602002602001015190506000848381518110613a6057fe5b602002602001015190506000600f6000848152602001908152602001600020600101549050600181019050604051806060016040528084815260200182815260200183815250600f60008581526020019081526020016000206000820151816000015560208201518160010155604082015181600201559050506001601060003373ffffffffffffffffffffffffffffffffffffffff1673ffffffffffffffffffffffffffffffffffffffff1681526020019081526020016000206000858152602001908152602001600020819055505050508080600101915050613a31565b505050565b60176020528160005260406000208181548110613b5e57fe5b90600052602060002001600091509150505481565b6003600081548092919060010191905055506040518060a00160405280600354815260200189815260200188815260200187815260200186815250600d60006003548152602001908152602001600020600082015181600001556020820151816001019080519060200190613be9929190614160565b506040820151816002019080519060200190613c06929190614160565b506060820151816003019080519060200190613c23929190614160565b506080820151816004019080519060200190613c40929190614160565b509050506040518060a00160405280600354815260200185815260200184815260200183815260200182815250600e60006003548152602001908152602001600020600082015181600001556020820151816001019080519060200190613ca8929190614160565b506040820151816002019080519060200190613cc5929190614160565b506060820151816003019080519060200190613ce2929190614160565b506080820151816004019080519060200190613cff929190614160565b509050505050505050505050565b60096020528060005260406000206000915090508060000154908060010160009054906101000a900473ffffffffffffffffffffffffffffffffffffffff1690806002015490806003018054600181600116156101000203166002900480601f016020809104026020016040519081016040528092919081815260200182805460018160011615610100020316600290048015613deb5780601f10613dc057610100808354040283529160200191613deb565b820191906000526020600020905b815481529060010190602001808311613dce57829003601f168201915b505050505090806004018054600181600116156101000203166002900480601f016020809104026020016040519081016040528092919081815260200182805460018160011615610100020316600290048015613e895780601f10613e5e57610100808354040283529160200191613e89565b820191906000526020600020905b815481529060010190602001808311613e6c57829003601f168201915b505050505090806005018054600181600116156101000203166002900480601f016020809104026020016040519081016040528092919081815260200182805460018160011615610100020316600290048015613f275780601f10613efc57610100808354040283529160200191613f27565b820191906000526020600020905b815481529060010190602001808311613f0a57829003601f168201915b505050505090806006018054600181600116156101000203166002900480601f016020809104026020016040519081016040528092919081815260200182805460018160011615610100020316600290048015613fc55780601f10613f9a57610100808354040283529160200191613fc5565b820191906000526020600020905b815481529060010190602001808311613fa857829003601f168201915b5050505050905087565b6001601560003373ffffffffffffffffffffffffffffffffffffffff1673ffffffffffffffffffffffffffffffffffffffff16815260200190815260200160002060008381526020019081526020016000208190555050565b6015602052816000526040600020602052806000526040600020600091509150505481565b80601460003373ffffffffffffffffffffffffffffffffffffffff1673ffffffffffffffffffffffffffffffffffffffff16815260200190815260200160002090805190602001906140a09291906142ad565b5050565b60045481565b6010602052816000526040600020602052806000526040600020600091509150505481565b60606017600083815260200190815260200160002080548060200260200160405190810160405280929190818152602001828054801561412e57602002820191906000526020600020905b81548152602001906001019080831161411a575b50505050509050919050565b600660009054906101000a900473ffffffffffffffffffffffffffffffffffffffff1681565b828054600181600116156101000203166002900490600052602060002090601f016020900481019282601f106141a157805160ff19168380011785556141cf565b828001600101855582156141cf579182015b828111156141ce5782518255916020019190600101906141b3565b5b5090506141dc919061430d565b5090565b828054600181600116156101000203166002900490600052602060002090601f016020900481019282601f1061422157805160ff191683800117855561424f565b8280016001018555821561424f579182015b8281111561424e578251825591602001919060010190614233565b5b50905061425c919061430d565b5090565b82805482825590600052602060002090810192821561429c579160200282015b8281111561429b578251825591602001919060010190614280565b5b5090506142a9919061430d565b5090565b8280548282559060005260206000209081019282156142fc579160200282015b828111156142fb5782518290805190602001906142eb929190614160565b50916020019190600101906142cd565b5b5090506143099190614332565b5090565b61432f91905b8082111561432b576000816000905550600101614313565b5090565b90565b61435b91905b80821115614357576000818161434e919061435e565b50600101614338565b5090565b90565b50805460018160011615610100020316600290046000825580601f1061438457506143a3565b601f0160209004906000526020600020908101906143a2919061430d565b5b50565b6000813590506143b5816151f6565b92915050565b600082601f8301126143cc57600080fd5b81356143df6143da8261500a565b614fdd565b9150818183526020840193506020810190508360005b83811015614425578135860161440b88826144b2565b8452602084019350602083019250506001810190506143f5565b5050505092915050565b600082601f83011261444057600080fd5b813561445361444e82615032565b614fdd565b9150818183526020840193506020810190508385602084028201111561447857600080fd5b60005b838110156144a8578161448e888261455a565b84526020840193506020830192505060018101905061447b565b5050505092915050565b600082601f8301126144c357600080fd5b81356144d66144d18261505a565b614fdd565b915080825260208301602083018583830111156144f257600080fd5b6144fd8382846151a3565b50505092915050565b600082601f83011261451757600080fd5b813561452a61452582615086565b614fdd565b9150808252602083016020830185838301111561454657600080fd5b6145518382846151a3565b50505092915050565b6000813590506145698161520d565b92915050565b60006020828403121561458157600080fd5b600061458f848285016143a6565b91505092915050565b600080604083850312156145ab57600080fd5b60006145b9858286016143a6565b92505060206145ca8582860161455a565b9150509250929050565b6000602082840312156145e657600080fd5b600082013567ffffffffffffffff81111561460057600080fd5b61460c848285016143bb565b91505092915050565b6000806040838503121561462857600080fd5b600083013567ffffffffffffffff81111561464257600080fd5b61464e8582860161442f565b925050602083013567ffffffffffffffff81111561466b57600080fd5b6146778582860161442f565b9150509250929050565b6000806040838503121561469457600080fd5b600083013567ffffffffffffffff8111156146ae57600080fd5b6146ba8582860161442f565b92505060206146cb8582860161455a565b9150509250929050565b6000602082840312156146e757600080fd5b600082013567ffffffffffffffff81111561470157600080fd5b61470d84828501614506565b91505092915050565b6000806040838503121561472957600080fd5b600083013567ffffffffffffffff81111561474357600080fd5b61474f85828601614506565b925050602083013567ffffffffffffffff81111561476c57600080fd5b61477885828601614506565b9150509250929050565b60008060008060008060c0878903121561479b57600080fd5b600087013567ffffffffffffffff8111156147b557600080fd5b6147c189828a01614506565b965050602087013567ffffffffffffffff8111156147de57600080fd5b6147ea89828a01614506565b955050604087013567ffffffffffffffff81111561480757600080fd5b61481389828a01614506565b945050606087013567ffffffffffffffff81111561483057600080fd5b61483c89828a0161442f565b935050608087013567ffffffffffffffff81111561485957600080fd5b61486589828a0161442f565b92505060a061487689828a0161455a565b9150509295509295509295565b600080600080600080600080610100898b0312156148a057600080fd5b600089013567ffffffffffffffff8111156148ba57600080fd5b6148c68b828c01614506565b985050602089013567ffffffffffffffff8111156148e357600080fd5b6148ef8b828c01614506565b975050604089013567ffffffffffffffff81111561490c57600080fd5b6149188b828c01614506565b965050606089013567ffffffffffffffff81111561493557600080fd5b6149418b828c01614506565b955050608089013567ffffffffffffffff81111561495e57600080fd5b61496a8b828c01614506565b94505060a089013567ffffffffffffffff81111561498757600080fd5b6149938b828c01614506565b93505060c089013567ffffffffffffffff8111156149b057600080fd5b6149bc8b828c01614506565b92505060e089013567ffffffffffffffff8111156149d957600080fd5b6149e58b828c01614506565b9150509295985092959890939650565b600060208284031215614a0757600080fd5b6000614a158482850161455a565b91505092915050565b600080600060608486031215614a3357600080fd5b6000614a418682870161455a565b935050602084013567ffffffffffffffff811115614a5e57600080fd5b614a6a86828701614506565b925050604084013567ffffffffffffffff811115614a8757600080fd5b614a9386828701614506565b9150509250925092565b60008060408385031215614ab057600080fd5b6000614abe8582860161455a565b9250506020614acf8582860161455a565b9150509250929050565b6000614ae58383614c18565b905092915050565b6000614af98383614cca565b60208301905092915050565b614b0e81615167565b82525050565b6000614b1f826150d2565b614b298185615118565b935083602082028501614b3b856150b2565b8060005b85811015614b775784840389528151614b588582614ad9565b9450614b63836150fe565b925060208a01995050600181019050614b3f565b50829750879550505050505092915050565b6000614b94826150dd565b614b9e8185615129565b9350614ba9836150c2565b8060005b83811015614bda578151614bc18882614aed565b9750614bcc8361510b565b925050600181019050614bad565b5085935050505092915050565b6000614bf2826150f3565b614bfc818561515c565b9350614c0c8185602086016151b2565b80840191505092915050565b6000614c23826150e8565b614c2d818561513a565b9350614c3d8185602086016151b2565b614c46816151e5565b840191505092915050565b6000614c5c826150e8565b614c66818561514b565b9350614c768185602086016151b2565b614c7f816151e5565b840191505092915050565b6000614c9760018361515c565b91507f32000000000000000000000000000000000000000000000000000000000000006000830152600182019050919050565b614cd381615199565b82525050565b614ce281615199565b82525050565b6000614cf48284614be7565b915081905092915050565b6000614d0a82614c8a565b9150819050919050565b6000602082019050614d296000830184614b05565b92915050565b60006020820190508181036000830152614d498184614b14565b905092915050565b60006020820190508181036000830152614d6b8184614b89565b905092915050565b60006020820190508181036000830152614d8d8184614c51565b905092915050565b6000602082019050614daa6000830184614cd9565b92915050565b600060e082019050614dc5600083018a614cd9565b614dd26020830189614b05565b614ddf6040830188614cd9565b8181036060830152614df18187614c51565b90508181036080830152614e058186614c51565b905081810360a0830152614e198185614c51565b905081810360c0830152614e2d8184614c51565b905098975050505050505050565b6000606082019050614e506000830186614cd9565b8181036020830152614e628185614c51565b90508181036040830152614e768184614c51565b9050949350505050565b600060a082019050614e956000830188614cd9565b8181036020830152614ea78187614c51565b90508181036040830152614ebb8186614c51565b90508181036060830152614ecf8185614c51565b90508181036080830152614ee38184614c51565b90509695505050505050565b600061012082019050614f05600083018c614cd9565b8181036020830152614f17818b614c51565b90508181036040830152614f2b818a614c51565b90508181036060830152614f3f8189614c51565b90508181036080830152614f538188614c51565b905081810360a0830152614f678187614c51565b9050614f7660c0830186614cd9565b614f8360e0830185614cd9565b818103610100830152614f968184614c51565b90509a9950505050505050505050565b6000606082019050614fbb6000830186614cd9565b614fc86020830185614cd9565b614fd56040830184614cd9565b949350505050565b6000604051905081810181811067ffffffffffffffff8211171561500057600080fd5b8060405250919050565b600067ffffffffffffffff82111561502157600080fd5b602082029050602081019050919050565b600067ffffffffffffffff82111561504957600080fd5b602082029050602081019050919050565b600067ffffffffffffffff82111561507157600080fd5b601f19601f8301169050602081019050919050565b600067ffffffffffffffff82111561509d57600080fd5b601f19601f8301169050602081019050919050565b6000819050602082019050919050565b6000819050602082019050919050565b600081519050919050565b600081519050919050565b600081519050919050565b600081519050919050565b6000602082019050919050565b6000602082019050919050565b600082825260208201905092915050565b600082825260208201905092915050565b600082825260208201905092915050565b600082825260208201905092915050565b600081905092915050565b600061517282615179565b9050919050565b600073ffffffffffffffffffffffffffffffffffffffff82169050919050565b6000819050919050565b82818337600083830152505050565b60005b838110156151d05780820151818401526020810190506151b5565b838111156151df576000848401525b50505050565b6000601f19601f8301169050919050565b6151ff81615167565b811461520a57600080fd5b50565b61521681615199565b811461522157600080fd5b5056fea26469706673582212205117d035f6a88feaeff885c40e169b970d43f4970c992818be12ce9e6d18475964736f6c63430006040033",
  "source": "pragma solidity >=0.4.22 <0.8.0;\npragma experimental ABIEncoderV2;\ncontract Robot { \n       uint public supplierCount=0;\n       uint public customerCount=0;\n       uint public totalRobots=0;\n       uint public xsdCount=0;\n       uint public ontologyCount=0;\n\t   uint public ontologiestoadminCount=0;\n\t   \n       address public admin;\n       struct RobotGeneralInformation {\n              uint id;       \n              string purpose1;\n              string purpose2;\n              string robotname;\n              string proposed;\n              string ROAapproved;\n              uint rating;\n              uint totalapproval; \n              string descproposed;                          \n       }\n       mapping(uint => RobotGeneralInformation) public robotgeneralinformations;\n       struct RobotSubjectAtribute {\n              uint id;       \n              string manmachineinterface;\n              string programmingflexibility;\n              string stability;\n              string compliavce;              \n        }\n       mapping(uint => RobotSubjectAtribute) public robotsubjectattributes;\n       struct Ontology {\n              uint id;\n              address proposer;      \n              uint totalapproval; \n              string descproposed; \n\t\t\t  string justification;\n\t\t\t\tstring stdate;\n\t\t\t\tstring enddate;\t\t\t  \n        }\n       mapping(uint => Ontology) public ontology;\n\t   struct OntologyToAdmin {\n              uint id;\n              address proposer;      \n              uint sendtoAll; \n              string descproposed; \n\t\t\t  string justification;\t\n\t\t\t\tstring startdate;\n\t\t\t\tstring enddate;\n        }\n       mapping(uint => OntologyToAdmin) public ontologiestoadmin;\n\t   \n       struct RobotGeneralAtribute {\n              uint id;       \n              string processor;\n              string typeofrobot;                           \n        }\n       mapping(uint => RobotGeneralAtribute) public robotgeneralattributes;\n\n       struct RobotObjectiveAtribute {\n              uint id;       \n              string purchasecode;\n              string deliverytime;                           \n        }\n       mapping(uint => RobotObjectiveAtribute) public robotobjectiveattributes;\n       struct XSDFile1 { \n              uint id;                  \n              string manmachineinterface;\n              string programmingflexibility;\n              string stability;\n              string compliavce;                       \n       }  \n       mapping(uint => XSDFile1) public latestXSDFile1; \n       struct XSDFile2 { \n              uint id;\n              string processor;\n              string typeofrobot;\n              string purchasecode;\n              string deliverytime;               \n       }        \n       mapping(uint => XSDFile2) public latestXSDFile2; \n       struct RoboRating { \n              uint id;\n              uint totalCustomersRated;\n              uint totalRatings;                             \n       }        \n       mapping(uint => RoboRating) public roboratings; \n       mapping(address =>mapping(uint=>uint)) public ratedotnot;\n       mapping(uint => address) public robotowners;\n       mapping(address => string) public roles; \n       mapping(address => string) public rated; \n\tmapping (address => string[]) public interests;\n       mapping(address =>mapping(uint=>uint)) public allproposals;\n\n       mapping(uint=>uint[]) public subjectivedata;\n       mapping(uint=>uint[]) public objectivedata;\n       constructor() public {  \n              admin=msg.sender;    \n       }\n        function getSbjectiveData (uint _id) public view returns(uint[] memory){\n              return subjectivedata[_id];\n       }\n        function getObjectiveData (uint _id) public view returns(uint[] memory){\n              return objectivedata[_id];\n       }\n\n\t\tfunction addinterests (string [] memory _interest) public {\n\t\t\tinterests[msg.sender]=_interest;\n\t\t}\n\t\tfunction getinterests(address a) public view returns (string [] memory) {\n            return interests[a];\n\t\t}\n       function registerRoles (string memory _role) public {\n              require(bytes(roles[msg.sender]).length==0);\n              roles[msg.sender]=_role;\n              if(keccak256(abi.encodePacked((_role))) == keccak256(abi.encodePacked((\"2\")))){\n                   supplierCount++;  \n              }\n       }\n       function addNewRobot(string memory _p1,string memory _p2,string memory _rname,uint[] memory _sub,uint[] memory _obj,uint _pscore) public {\n              totalRobots++;\n              robotgeneralinformations[totalRobots] =RobotGeneralInformation(totalRobots,_p1,_p2,_rname,\"false\",\"false\",0,0,\"\");            \n              //robotsubjectattributes[totalRobots] =RobotSubjectAtribute(totalRobots,_mm,_pf,_st,_cp);\n              //robotgeneralattributes[totalRobots] =RobotGeneralAtribute(totalRobots,_prc,_type);\n              //robotobjectiveattributes[totalRobots] =RobotObjectiveAtribute(totalRobots,_pc,_pt);\n              robotowners[totalRobots]=msg.sender;\n              subjectivedata[totalRobots]=_sub;\n              objectivedata[totalRobots]=_obj;\n              roboratings[totalRobots]=RoboRating(totalRobots,0,_pscore);\n       }\n       function updateOntology(uint i,string memory _startdate,string memory _enddate) public { \n\t\t\t  address _adr=ontologiestoadmin[i].proposer;\n\t\t\t  string memory _desc=ontologiestoadmin[i].descproposed;\n\t\t\t  string memory _justification=ontologiestoadmin[i].justification;\n\t\t\t  ontologiestoadmin[i].sendtoAll=1;\n\t\t\t  ontologiestoadmin[i].startdate=_startdate;\n\t\t\t  ontologiestoadmin[i].enddate=_enddate;\n              ontologyCount++;\n              ontology[ontologyCount] =Ontology(ontologyCount,_adr,0,_desc,_justification,_startdate,_enddate);        \n       }\n\t    function deleteOntology(uint i) public { \t\t\t  \n\t\t\t  ontologiestoadmin[i].sendtoAll=2  ;                   \n       }\n\t    function updateOntologyToAdmin(string memory _desc,string memory _justification) public { \n              ontologiestoadminCount++;\n              ontologiestoadmin[ontologiestoadminCount] =OntologyToAdmin(ontologiestoadminCount,msg.sender,0,_desc,_justification,\"\",\"\");        \n       }\n       function acceptProposal(uint id) public {\n              address  _proposer=ontology[id].proposer;\n              string memory _desc=ontology[id].descproposed;                          \n              uint totalapproval=ontology[id].totalapproval+1;  \n\t\t\t  \n\t\t\t\tstring memory _justi=ontology[id].justification; \n\t\t\t\tstring memory _stdate=ontology[id].stdate; \n\t\t\t\tstring memory _enddate=ontology[id].enddate;                         \n              ontology[id] =Ontology(id,_proposer,totalapproval,_desc,_justi,_stdate,_enddate);\n              allproposals[msg.sender][id]=2;\n       }\n       function rejectProposal(uint id) public {\n              allproposals[msg.sender][id]=1;\n       }\n       function updateRatings(uint [] memory ratings,uint count) public {                     \n              customerCount++;\n              for(uint id=1;id<=count;id++){\n                     string memory _p1=robotgeneralinformations[id].purpose1;\n                     string memory _p2=robotgeneralinformations[id].purpose2;\n                     string memory _rname=robotgeneralinformations[id].robotname;\n                     string memory _propo=robotgeneralinformations[id].proposed;\n                     string memory _roa=robotgeneralinformations[id].ROAapproved;\n                     uint rating=robotgeneralinformations[id].rating;\n                     rating=rating+ratings[id-1];\n                     uint totalapproval=robotgeneralinformations[id].totalapproval; \n                     string memory _desc=robotgeneralinformations[id].descproposed; \n                     robotgeneralinformations[id] =RobotGeneralInformation(id,_p1,_p2,_rname,_propo,_roa,rating,totalapproval,_desc);\n              }            \n             rated[msg.sender]=\"1\";\n       }\n       function addtoXSDFile(string memory _mm,string memory _pf,string memory _st,string memory _cp,string memory _prc,string memory _type,string memory _pc,string memory _pt) public {\n              xsdCount++;                       \n              latestXSDFile1[xsdCount] =XSDFile1(xsdCount,_mm,_pf,_st,_cp);\n              latestXSDFile2[xsdCount] =XSDFile2(xsdCount,_prc,_type,_pc,_pt);              \n       }\n       function addtoXSDFilebyOntology(uint id) public {\n              xsdCount++; \n              string memory _mm=robotsubjectattributes[id].manmachineinterface;\n              string memory _pf=robotsubjectattributes[id].programmingflexibility;\n              string memory _st=robotsubjectattributes[id].stability;\n              string memory _cm=robotsubjectattributes[id].compliavce;\n              string memory _pr=robotgeneralattributes[id].processor;\n              string memory _type=robotgeneralattributes[id].typeofrobot;\n              string memory _pc=robotobjectiveattributes[id].purchasecode;\n              string memory _dt=robotobjectiveattributes[id].deliverytime;                                       \n              latestXSDFile1[xsdCount] =XSDFile1(xsdCount,_mm,_pf,_st,_cm);\n              latestXSDFile2[xsdCount] =XSDFile2(xsdCount,_pr,_type,_pc,_dt);              \n       }\n       function addRatingsOLD(uint [] memory ratings,uint [] memory robos) public {\n\t       for(uint i=0;i<robos.length;i++){\n                     uint _roboid=robos[i];\n                     uint _rating=ratings[i];\n                     uint rating=roboratings[_roboid].totalRatings;\n                     rating=rating+_rating;\n                     uint totalcust=roboratings[_roboid].totalCustomersRated;\n                     totalcust=totalcust+1;\n                     roboratings[_roboid]=RoboRating(_roboid,totalcust,rating);\n                     ratedotnot[msg.sender][_roboid]=1;\n              }\n       }\n       function addRatings(uint [] memory ratings,uint [] memory robos) public {\n\t       for(uint i=0;i<robos.length;i++){\n                     uint _roboid=robos[i];\n                     uint _rating=ratings[i];\n                     uint totalcust=roboratings[_roboid].totalCustomersRated;\n                     totalcust=totalcust+1;\n                     roboratings[_roboid]=RoboRating(_roboid,totalcust,_rating);\n                     ratedotnot[msg.sender][_roboid]=1;\n              }\n       }\n      \n}",
  "sourcePath": "C:/xampp/htdocs/Robot/contracts/Robot.sol",
  "compiler": {
    "name": "solc",
    "version": "0.6.4+commit.1dca32f3.Emscripten.clang"
  },
  "schemaVersion": "3.3.3",
  "updatedAt": "2022-02-15T16:48:46.343Z",
  "networkType": "ethereum",
  "devdoc": {
    "methods": {}
  },
  "userdoc": {
    "methods": {}
  }
}